:100000000C9462000C948A000C948A000C948A0070
:100010000C948A000C948A000C948A000C947E0341
:100020000C948A000C948A000C948A000C948A0028
:100030000C948A000C948A000C948A000C948A0018
:100040000C94DC020C948A000C944C030C94260350
:100050000C948A000C948A000C948A000C948A00F8
:100060000C948A000C948A00000000080002010031
:100070000003040700000000000000000000000072
:10008000240027002A000000000023002600290089
:1000900000000000250028002B00040404040404D0
:1000A0000404020202020202030303030303010227
:1000B00004081020408001020408102001020408F6
:1000C0001020A30311241FBECFEFD8E0DEBFCDBFA9
:1000D00011E0A0E0B1E0E4E2FBE002C005900D9287
:1000E000A032B107D9F721E0A0E2B1E001C01D9232
:1000F000AC3DB207E1F710E0C2E6D0E004C02197C2
:10010000FE010E948505C136D107C9F70E9410047F
:100110000C9490050C940000E1E7F0E09491E7EB7B
:10012000F0E02491E3EAF0E0E491EE2309F43CC02E
:10013000992339F1933091F038F49130A9F092304D
:1001400001F594B59F7D12C0973091F09830A1F0E1
:100150009430B9F4909180009F7D03C0909180000D
:100160009F77909380000DC094B59F7794BD09C090
:100170009091B0009F7703C09091B0009F7D9093C5
:10018000B000F0E0EE0FFF1FE057FF4FA591B491D4
:100190009FB7F894811104C08C912095282302C048
:1001A000EC912E2B2C939FBF08953FB7F89480912C
:1001B000290190912A01A0912B01B0912C0126B523
:1001C000A89B05C02F3F19F00196A11DB11D3FBF8F
:1001D000BA2FA92F982F8827820F911DA11DB11D1D
:1001E000BC01CD0142E0660F771F881F991F4A9519
:1001F000D1F70895CF92DF92EF92FF920F931F9362
:10020000CF93DF936C017A018B01C0E0D0E0CE1573
:10021000DF0581F0D8016D918D01D601ED91FC9142
:100220000190F081E02DC6010995892B11F02196EE
:10023000EECF7E01C701DF91CF911F910F91FF900B
:10024000EF90DF90CF900895089580E090E00895BA
:10025000FC01538D448D252F30E0842F90E0821BCC
:10026000930B541710F0CF96089501970895FC0151
:10027000918D828D981761F0828DDF01A80FB11DDD
:100280005D968C91928D9F5F9F73928F90E0089501
:100290008FEF9FEF0895FC01918D828D981731F0BB
:1002A000828DE80FF11D858D90E008958FEF9FEF0F
:1002B0000895FC01918D228D892F90E0805C9F4FE5
:1002C000821B91098F73992708958DE291E00E9416
:1002D000590121E0892B09F420E0822F0895FC01C7
:1002E000848DDF01A80FB11DA35ABF4F2C91848DBF
:1002F00090E001968F739927848FA689B7892C93F4
:10030000A089B1898C91837080648C93938D848D46
:10031000981306C00288F389E02D80818F7D808349
:100320000895EF92FF920F931F93CF93DF93EC0109
:1003300081E0888F9B8D8C8D981305C0E889F989A1
:10034000808185FD26C0F62E0B8D10E00F5F1F4FBC
:100350000F731127E02E8C8DE8120CC00FB607FC2E
:10036000FACFE889F989808185FFF5CFCE010E9417
:100370006F01F1CF8B8DFE01E80FF11DE35AFF4FA6
:10038000F0829FB7F8940B8FEA89FB8980818062A5
:100390000AC09FB7F894EE89FF896083E889F989DC
:1003A00080818370806480839FBF81E090E0DF91D3
:1003B000CF911F910F91FF90EF900895CF93DF930E
:1003C000EC01888D8823C9F0EA89FB89808185FD4D
:1003D00005C0A889B9898C9186FD0FC00FB607FCAE
:1003E000F5CF808185FFF2CFA889B9898C9185FFEF
:1003F000EDCFCE010E946F01E7CFDF91CF9108953D
:1004000080E090E0892B29F00E94650181110C9415
:10041000000008950F931F93E091D401F091D5014E
:1004200090818091CE01892B8083E091D001F09161
:10043000D10190818091CE018095892380838BE0CA
:1004400090E00197F1F7E091D001F091D101908116
:100450008091CE01892B808383E290E00197F1F7B0
:10046000E091D001F091D10190818091CE018095F1
:1004700089238083E091D401F091D501908180910E
:10048000CE01809589238083E091D201F091D30140
:1004900090818091CF01892309F075C00E94D50019
:1004A0002091D6013091D701890120E030E0085534
:1004B000194E2F4F3F4FDC01CB01800F911FA21F20
:1004C000B31F8093D8019093D901A093DA01B09320
:1004D000DB01E091D201F091D30190818091CF01B5
:1004E000892381F40E94D5000091D8011091D9018F
:1004F0002091DA013091DB01061717072807390729
:1005000040F741C00E94D5002091D6013091D7011B
:10051000DC01CB01820F931FA11DB11D8093D80177
:100520009093D901A093DA01B093DB01E091D2015D
:10053000F091D30190818091CF01892381F00E94B5
:10054000D5000091D8011091D9012091DA013091A4
:10055000DB01061717072807390740F714C00E9468
:10056000D5002091D6013091D701A90145505109FC
:100570002091D8013091D901FA01E21BF30BCF0190
:10058000860F971F02C080E090E01F910F910895A1
:10059000009769F0FC0101900020E9F73197AF0165
:1005A000481B590BBC018DE291E00C94FA0080E0ED
:1005B00090E008950E948B051F920F920FB60F9244
:1005C00011242F933F938F939F93AF93BF93809169
:1005D000250190912601A0912701B0912801309129
:1005E000240123E0230F2D3720F40196A11DB11D16
:1005F00005C026E8230F0296A11DB11D20932401FA
:100600008093250190932601A0932701B0932801A0
:100610008091290190912A01A0912B01B0912C0188
:100620000196A11DB11D8093290190932A01A093E9
:100630002B01B0932C01BF91AF919F918F913F916E
:100640002F910F900FBE0F901F9018951F920F9231
:100650000FB60F9211242F933F934F935F936F9395
:100660007F938F939F93AF93BF93EF93FF938DE20D
:1006700091E00E946F01FF91EF91BF91AF919F9127
:100680008F917F916F915F914F913F912F910F903B
:100690000FBE0F901F9018951F920F920FB60F92DA
:1006A00011242F938F939F93EF93FF93E0913D013C
:1006B000F0913E018081E0914301F091440182FD7F
:1006C00012C09081809146018F5F8F732091470106
:1006D000821751F0E0914601F0E0E35DFE4F958F07
:1006E0008093460101C08081FF91EF919F918F918E
:1006F0002F910F900FBE0F901F9018951F920F9281
:100700000FB60F9211242F933F934F935F936F93E4
:100710007F938F939F93AF93BF93EF93FF93E0E00B
:10072000F0E00995FF91EF91BF91AF919F918F916B
:100730007F916F915F914F913F912F910F900FBEDD
:100740000F901F901895EDE2F1E01382128288EE6F
:1007500093E0A0E0B0E084839583A683B78384E030
:1007600091E09183808385EC90E09587848784EC89
:1007700090E09787868780EC90E0918B808B81EC6E
:1007800090E0938B828B82EC90E0958B848B86EC4F
:1007900090E0978B868B118E128E138E148EE1EB68
:1007A000F0E0E491AAECB1E01496EC931497E0EB3E
:1007B000F0E0E4911596EC9315978DE990E0FC013B
:1007C0002491E22FF0E0EE0FFF1FE057FF4F25913D
:1007D000349117963C932E931697ECE9F0E0E49150
:1007E000F0E0EE0FFF1FEA57FF4F25913491199665
:1007F0003C932E931897FC018491E82FF0E0EE0FC4
:10080000FF1FE458FF4F859194911B969C938E9304
:100810001A978DE796E11D969C938E931C970895E9
:10082000CF93DF93CDB7DEB7A1970FB6F894DEBFB5
:100830000FBECDBF789484B5826084BD84B58160DD
:1008400084BD85B5826085BD85B5816085BD80919B
:100850006E00816080936E00109281008091810013
:10086000826080938100809181008160809381000B
:10087000809180008160809380008091B1008460CD
:100880008093B1008091B00081608093B00080912E
:100890007A00846080937A0080917A0082608093ED
:1008A0007A0080917A00816080937A0080917A004A
:1008B000806880937A001092C100E0913D01F09130
:1008C0003E0182E08083E0913901F0913A0110828B
:1008D000E0913B01F0913C018FEC80831092450147
:1008E000E0914101F091420186E08083E0913F0177
:1008F000F0914001808180618083E0913F01F0911F
:100900004001808188608083E0913F01F091400147
:10091000808180688083E0913F01F0914001808177
:100920008F7D808379E3472E512C612C712CE1E778
:100930002E2EE0E03E2E0E94D5006B017C0162E38A
:10094000862E912CA12CB12C0E94D500DC01CB016C
:100950008C199D09AE09BF09883E9340A105B105D8
:1009600098F321E0821A9108A108B10868EEC60E3A
:1009700063E0D61EE11CF11C81149104A104B104B2
:1009800019F782E191E00E94C8020E940A02BC01AC
:1009900080E090E0A30192010E94630519A28E01FC
:1009A0000F5D1F4FCA01B9012AE030E040E050E07E
:1009B0000E946305605DF80162938F012115310586
:1009C0004105510579F7CF010E94C80289E191E004
:1009D0000E94C8028CE191E00E94C8020E940A02B3
:1009E000BC0180E090E0A30192010E946305F6E063
:1009F000F29FC001F39F900D1124E7EBF0E04491CA
:100A0000E3EAF0E02491222399F030E0220F331F33
:100A1000F901E458FF4FA591B491F901E057FF4F58
:100A2000259134913FB7F8942C91422B4C933FBFC2
:100A3000009711F480E042C0F10124912330F9F0D5
:100A400048F42130B9F02230A1F594B5906294BDFC
:100A500088BD36C02730E9F0283019F1243049F537
:100A60002091800020622093800090938B008093DF
:100A70008A0026C094B5906894BD87BD21C020919E
:100A800080002068209380009093890080938800E4
:100A900017C09091B00090689093B0008093B3001D
:100AA0000FC09091B00090629093B0008093B4001A
:100AB00007C08038910508F4BDCF81E00E948C000A
:100AC0000E94000238CFA1E21A2EAA1BBB1BFD0117
:100AD0000DC0AA1FBB1FEE1FFF1FA217B307E4071D
:100AE000F50720F0A21BB30BE40BF50B661F771F75
:100AF000881F991F1A9469F7609570958095909555
:100B00009B01AC01BD01CF010895EE0FFF1F0590C1
:100B1000F491E02D099481E090E0F8940C94900514
:040B2000F894FFCF77
:100B2400000000009101FA002801DE01590137019B
:100B34004B0150696E673A2000636D000D0A000096
:00000001FF
