:100000000C9462000C948A000C948A000C948A0070
:100010000C948A000C948A000C948A000C948A0038
:100020000C948A000C948A000C948A000C944F0360
:100030000C948A000C948A000C948A000C948A0018
:100040000C94AD020C948A000C941D030C94F702DE
:100050000C948A000C948A000C948A000C948A00F8
:100060000C948A000C948A000000000023002600F3
:10007000290000000000240027002A0000000000E2
:10008000250028002B0004040404040404040202D4
:100090000202020203030303030301020408102007
:1000A0004080010204081020010204081020000012
:1000B0000008000201000003040700000000000027
:1000C0000000550411241FBECFEFD8E0DEBFCDBF26
:1000D00011E0A0E0B1E0E8E7F0E102C005900D9288
:1000E000A631B107D9F721E0A6E1B1E001C01D9228
:1000F000A53EB207E1F710E0C2E6D0E004C02197C8
:10010000FE010E942F08C136D107C9F70E94B3042F
:100110000C943A080C94000090E0FC01E255FF4F6B
:100120002491FC01E656FF4F3491FC01EA57FF4F42
:10013000E491EE2309F43CC0222339F1233091F0FD
:1001400038F42130A9F0223001F584B58F7D12C03A
:10015000273091F02830A1F02430B9F4809180004C
:100160008F7D03C0809180008F77809380000DC0C9
:1001700084B58F7784BD09C08091B0008F7703C0AC
:100180008091B0008F7D8093B000F0E0EE0FFF1FF4
:10019000E458FF4FA591B4919FB7F894611104C042
:1001A0008C913095382302C0EC913E2B3C939FBF3D
:1001B0000895CF93DF9390E0FC01E656FF4F249122
:1001C000FC01EA57FF4F8491882361F190E0880F8A
:1001D000991FFC01EE58FF4FC591D491FC01E458E2
:1001E000FF4FA591B491611109C09FB7F894888120
:1001F000209582238883EC912E230BC0623061F41A
:100200009FB7F8948881322F309583238883EC91AF
:100210002E2B2C939FBF06C08FB7F894E8812E2B0E
:1002200028838FBFDF91CF9108953FB7F8948091D5
:100230001C0190911D01A0911E01B0911F0126B5D6
:10024000A89B05C02F3F19F00196A11DB11D3FBF0E
:10025000BA2FA92F982F8827820F911DA11DB11D9C
:10026000BC01CD0142E0660F771F881F991F4A9598
:10027000D1F70895CF92DF92EF92FF920F931F93E1
:10028000CF93DF936C017A018B01C0E0D0E0CE15F3
:10029000DF0581F0D8016D918D01D601ED91FC91C2
:1002A0000190F081E02DC6010995892B11F021966E
:1002B000EECF7E01C701DF91CF911F910F91FF908B
:1002C000EF90DF90CF900895089580E090E008953A
:1002D000FC01538D448D252F30E0842F90E0821B4C
:1002E000930B541710F0CF96089501970895FC01D1
:1002F000918D828D981761F0828DDF01A80FB11D5D
:100300005D968C91928D9F5F9F73928F90E0089580
:100310008FEF9FEF0895FC01918D828D981731F03A
:10032000828DE80FF11D858D90E008958FEF9FEF8E
:100330000895FC01918D228D892F90E0805C9F4F64
:10034000821B91098F739927089580E291E00E94A2
:10035000990121E0892B09F420E0822F0895FC0106
:10036000848DDF01A80FB11DA35ABF4F2C91848D3E
:1003700090E001968F739927848FA689B7892C9373
:10038000A089B1898C91837080648C93938D848DC6
:10039000981306C00288F389E02D80818F7D8083C9
:1003A0000895EF92FF920F931F93CF93DF93EC0189
:1003B00081E0888F9B8D8C8D981305C0E889F98921
:1003C000808185FD26C0F62E0B8D10E00F5F1F4F3C
:1003D0000F731127E02E8C8DE8120CC00FB607FCAE
:1003E000FACFE889F989808185FFF5CFCE010E9497
:1003F000AF01F1CF8B8DFE01E80FF11DE35AFF4FE6
:10040000F0829FB7F8940B8FEA89FB898081806224
:100410000AC09FB7F894EE89FF896083E889F9895B
:1004200080818370806480839FBF81E090E0DF9152
:10043000CF911F910F91FF90EF900895CF93DF938D
:10044000EC01888D8823C9F0EA89FB89808185FDCC
:1004500005C0A889B9898C9186FD0FC00FB607FC2D
:10046000F5CF808185FFF2CFA889B9898C9185FF6E
:10047000EDCFCE010E94AF01E7CFDF91CF9108957C
:1004800080E090E0892B29F00E94A50181110C9455
:1004900000000895009769F0FC0101900020E9F741
:1004A0003197AF01481B590BBC0180E291E00C94DD
:1004B0003A0180E090E008950E9435080F931F9361
:1004C00060E083E00E948C0083E090E00197F1F708
:1004D00061E083E00E948C0083E290E00197F1F7F5
:1004E00060E083E00E948C00ECE9F0E06491E8E8D1
:1004F000F0E0E491F0E0EE0FFF1FE859FF4F859127
:10050000949100E412E42FE030E0462F0E941004A2
:10051000611571058105910549F0DC01CB0101965A
:10052000A11DB11DBC01CD019F7003C060E070E052
:10053000CB010E942A072EE338EE49E55CE30E94D6
:100540008E0720E030E040E05FE30E948E070E94CB
:10055000F206CB011F910F9108951F920F920FB6D3
:100560000F9211242F933F938F939F93AF93BF9339
:100570008091180190911901A0911A01B0911B016D
:100580003091170123E0230F2D3720F40196A11D90
:10059000B11D05C026E8230F0296A11DB11D2093B1
:1005A00017018093180190931901A0931A01B09339
:1005B0001B0180911C0190911D01A0911E01B09121
:1005C0001F010196A11DB11D80931C0190931D0177
:1005D000A0931E01B0931F01BF91AF919F918F9186
:1005E0003F912F910F900FBE0F901F9018951F9263
:1005F0000F920FB60F9211242F933F934F935F9357
:100600006F937F938F939F93AF93BF93EF93FF93DA
:1006100080E291E00E94AF01FF91EF91BF91AF9115
:100620009F918F917F916F915F914F913F912F910A
:100630000F900FBE0F901F9018951F920F920FB63C
:100640000F9211242F938F939F93EF93FF93E09139
:100650003001F09131018081E0913601F091370154
:1006600082FD12C09081809139018F5F8F7320913C
:100670003A01821751F0E0913901F0E0E05EFE4F5F
:10068000958F8093390101C08081FF91EF919F91F7
:100690008F912F910F900FBE0F901F9018951F9262
:1006A0000F920FB60F9211242F933F934F935F93A6
:1006B0006F937F938F939F93AF93BF93EF93FF932A
:1006C0008091160187FF05C010928500109284006A
:1006D0001BC020911601022E000C330B8091E1010A
:1006E00090E02817390784F480911601082E000C39
:1006F000990BFC01EE0FFF1F8E0F9F1FFC01E354AF
:10070000FE4F808186FD15C0809116018F5F80931A
:10071000160120911601022E000C330B8091E1018D
:1007200090E028173907C4F4809116018C3064F1E9
:1007300013C080911601082E000C990BFC01EE0FDE
:10074000FF1F8E0F9F1FFC01E354FE4F808160E06E
:100750008F730E948C00D8CF809184009091850087
:10076000049680349C4918F480E49CE905C080918B
:10077000840090918500049690938900809388006E
:100780008FEF809316013BC020918400309185004B
:1007900080911601082E000C990BFC01EE0FFF1F33
:1007A0008E0F9F1FFC01E354FE4F81819281820FC7
:1007B000931F909389008093880080911601082EE2
:1007C000000C990BFC01EE0FFF1F8E0F9F1FFC0109
:1007D000E354FE4F808186FF12C080911601082EDF
:1007E000000C990BFC01EE0FFF1F8E0F9F1FFC01E9
:1007F000E354FE4F808161E08F730E948C00FF9173
:10080000EF91BF91AF919F918F917F916F915F9188
:100810004F913F912F910F900FBE0F901F90189501
:10082000CF92DF92EF92FF920F931F93E82FF92F51
:1008300005C0015011092109310961F19081962308
:100840009417B9F305C0015011092109310911F1BB
:10085000908196239413F7CFC12CD12CE12CF12C4D
:100860000AC08FEFC81AD80AE80AF80A0C151D0545
:100870002E053F0579F080818623841791F36C2D36
:100880007D2D8E2D9F2D1F910F91FF90EF90DF906A
:10089000CF90089560E070E080E090E01F910F91AC
:1008A000FF90EF90DF90CF90089510922301109267
:1008B000220188EE93E0A0E0B0E0809324019093C1
:1008C0002501A0932601B093270184E091E0909345
:1008D00021018093200185EC90E090932D0180937D
:1008E0002C0184EC90E090932F0180932E0180ECFA
:1008F00090E0909331018093300181EC90E09093EF
:1009000033018093320182EC90E090933501809323
:10091000340186EC90E09093370180933601109279
:10092000390110923A0110923B0110923C018091E2
:10093000E1018C30A0F491E0980F9093E101809355
:10094000E20190E0FC01EE0FFF1F8E0F9F1FFC01E4
:10095000E354FE4F88EB9BE09283818308958FEFF1
:100960008093E2010895CF93DF93CDB7DEB7A197CF
:100970000FB6F894DEBF0FBECDBF789484B5826009
:1009800084BD84B5816084BD85B5826085BD85B533
:10099000816085BD80916E00816080936E001092B1
:1009A000810080918100826080938100809181002C
:1009B00081608093810080918000816080938000BD
:1009C0008091B10084608093B1008091B00081601B
:1009D0008093B00080917A00846080937A00809147
:1009E0007A00826080937A0080917A00816080939F
:1009F0007A0080917A00806880937A001092C1001A
:100A000061E083E00E94D90060E082E00E94D900AA
:100A10008091E2018C3008F051C061E087E00E94D3
:100A2000D9008091E201E82FF0E09F01220F331FEF
:100A3000E20FF31FE354FE4F9081907C9760908308
:100A40001092E3011092E4016CE00E9423082CE074
:100A5000829FB001112440E050E09B01240F351F1C
:100A6000F901EE0FFF1F2E0F3F1FF901E354FE4F58
:100A7000908196FD16C04F5F5F4F4C30510569F76E
:100A800081110FC01092800082E08093810010924B
:100A9000850010928400B19A80916F0082608093EB
:100AA0006F00E091E201F0E0CF01880F991FE80F9D
:100AB000F91FE354FE4F808180648083E091300110
:100AC000F091310182E08083E0912C01F0912D01C1
:100AD0001082E0912E01F0912F018FEC8083109213
:100AE0003801E0913401F091350186E08083E09196
:100AF0003201F0913301808180618083E091320185
:100B0000F0913301808188608083E0913201F0911F
:100B10003301808180688083E0913201F09133015C
:100B200080818F7D80832AE0422E512C612C712C94
:100B300038E8232E312C08E512E00E945E026C0199
:100B4000990FEE08FF08F7FE20C06DE280E291E009
:100B50000E94D10122273327A9012C193D094E09F2
:100B60005F0919A2CE0181967C01CA01B901A301D6
:100B700092010E94C106605DF70162937F01211519
:100B800031054105510589F715C0A701960119A244
:100B9000CE0181967C01CA01B901A30192010E9494
:100BA000C106605DF70162937F01211531054105A2
:100BB000510589F7C7010E944A0242E050E062E114
:100BC00071E080E291E00E943A010E945E024FE0F3
:100BD0009C01429FC001439F900D1124FC0133965C
:100BE000E03252E0F5070CF03DC0F7FD06C0E53BF2
:100BF000F1052CF0E4EBF0E002C0E0E0F0E08091E1
:100C0000E3016101C81AD10887FDD394D601AA0F68
:100C1000BB1FAA0FBB1F6D01BB0FEE08FF08809121
:100C2000E4014801881A910887FD9394880C991C67
:100C3000880C991C092C000CAA08BB08A50194017A
:100C40002C193D094E095F09DF010E94B90624EB0A
:100C500030E040E050E00E948F06C20ED31EE41E3A
:100C6000F51EF6012091E2012C3080F58091E30120
:100C7000A101481B510987FD5395CA01880F991F8F
:100C8000880F991FE817F90784F08091E401B801F3
:100C9000681B710987FD7395660F771F660F771FB5
:100CA000CF016E177F070CF4CB010297880F991FB5
:100CB0004FB7F89430E0F901EE0FFF1F2E0F3F1FE2
:100CC000F901E354FE4F928381834FBF0E941501C7
:100CD0004B015C0188ECC82ED12CE12CF12C0E9438
:100CE0001501DC01CB0188199909AA09BB09883EC5
:100CF0009340A105B10598F351E0C51AD108E10868
:100D0000F10888EE880E83E0981EA11CB11CC11466
:100D1000D104E104F10419F70E9440020ECF052E20
:100D200097FB1EF400940E94A60657FD07D00E9470
:100D3000C10607FC03D04EF40C94A60650954095CE
:100D4000309521953F4F4F4F5F4F08959095809577
:100D5000709561957F4F8F4F9F4F08950E94E306D6
:100D6000A59F900DB49F900DA49F800D911D1124FF
:100D70000895B7FF0C94AE060E94AE06821B930B3B
:100D80000895A1E21A2EAA1BBB1BFD010DC0AA1FCC
:100D9000BB1FEE1FFF1FA217B307E407F50720F0E4
:100DA000A21BB30BE40BF50B661F771F881F991F5F
:100DB0001A9469F760957095809590959B01AC01A8
:100DC000BD01CF010895A29FB001B39FC001A39FB1
:100DD000700D811D1124911DB29F700D811D112474
:100DE000911D08950E94F9066894B1110C9488072A
:100DF00008950E946D0788F09F5798F0B92F9927A2
:100E0000B751B0F0E1F0660F771F881F991F1AF0F5
:100E1000BA95C9F714C0B13091F00E948707B1E0CC
:100E200008950C948707672F782F8827B85F39F0CB
:100E3000B93FCCF3869577956795B395D9F73EF48E
:100E400090958095709561957F4F8F4F9F4F089536
:100E5000E89409C097FB3EF4909580957095619554
:100E60007F4F8F4F9F4F9923A9F0F92F96E9BB270A
:100E70009395F695879577956795B795F111F8CF86
:100E8000FAF4BB0F11F460FF1BC06F5F7F4F8F4FF1
:100E90009F4F16C0882311F096E911C0772321F0E7
:100EA0009EE8872F762F05C0662371F096E8862F7F
:100EB00070E060E02AF09A95660F771F881FDAF7D6
:100EC000880F9695879597F9089557FD9058440F88
:100ED000551F59F05F3F71F04795880F97FB991F99
:100EE00061F09F3F79F08795089512161306140656
:100EF000551FF2CF4695F1DF08C0161617061806E3
:100F0000991FF1CF86957105610508940895E894BD
:100F1000BB2766277727CB0197F908950E94A10781
:100F20000C9412080E94040838F00E940B0820F06C
:100F3000952311F00C94FB070C94010811240C94D8
:100F400088070E94650770F3959FC1F3950F50E0E5
:100F5000551F629FF001729FBB27F00DB11D639F6B
:100F6000AA27F00DB11DAA1F649F6627B00DA11D11
:100F7000661F829F2227B00DA11D621F739FB00DB7
:100F8000A11D621F839FA00D611D221F749F332727
:100F9000A00D611D231F849F600D211D822F762FC0
:100FA0006A2F11249F5750409AF0F1F088234AF09D
:100FB000EE0FFF1FBB1F661F771F881F9150504009
:100FC000A9F79E3F510580F00C94FB070C9488070D
:100FD0005F3FE4F3983ED4F3869577956795B79590
:100FE000F795E7959F5FC1F7FE2B880F911D9695AA
:100FF000879597F9089597F99F6780E870E060E01A
:1010000008959FEF80EC089500240A9416161706A1
:1010100018060906089500240A94121613061406E9
:1010200005060895092E0394000C11F4882352F04C
:10103000BB0F40F4BF2B11F460FF04C06F5F7F4F04
:101040008F4F9F4F0895991B79E004C0991F961701
:1010500008F0961B881F7A95C9F780950895EE0FC2
:10106000FF1F0590F491E02D099481E090E0F89441
:081070000C943A08F894FFCF3C
:1010780000000000D1013A0168011E0299017701C0
:061088008B010D0A0000BF
:00000001FF
